:020000040800F2
:1000000000000220510C0008A10C0008A10C0008FF
:10001000A10C0008A10C0008A10C000800000000C1
:10002000000000000000000000000000A10C00081B
:10003000A10C000800000000A10C0008A10C0008A1
:10004000A10C0008A10C0008A10C0008A10C0008DC
:10005000A10C0008A10C0008A10C0008A10C0008CC
:10006000A10C0008A10C0008A10C0008A10C0008BC
:10007000A10C0008A10C0008A10C0008A10C0008AC
:10008000A10C0008A10C0008A10C0008A10C00089C
:10009000A10C0008A10C0008A10C0008A10C00088C
:1000A000A10C0008A10C0008A10C0008A10C00087C
:1000B000A10C0008A10C0008A10C0008A10C00086C
:1000C000A10C0008A10C0008A10C0008A10C00085C
:1000D000A10C0008790D0008A10C0008A10C000873
:1000E000A10C0008A10C0008A10C0008A10C00083C
:1000F000A10C0008A10C0008A10C0008A10C00082C
:10010000A10C0008A10C0008A10C0008A10C00081B
:10011000A10C0008A10C0008A10C0008A10C00080B
:10012000A10C0008A10C0008A10C0008A10C0008FB
:10013000A10C0008A10C0008A10C0008A10C0008EB
:10014000A10C0008A10C0008A10C0008A10C0008DB
:10015000A10C0008A10C0008A10C0008A10C0008CB
:10016000A10C0008A10C0008A10C0008A10C0008BB
:10017000A10C0008A10C0008A10C00080000000060
:08018000A10C0008A10C00080D
:10019000034613F8012B002AFBD1181A01387047C7
:1001A00001F0FF01102A2BDB10F0070F08D010F828
:1001B000013B013A8B422DD010F0070F42B3F6D12C
:1001C000F0B441EA012141EA014122F007047FF045
:1001D00000070023F0E80256083C85EA010586EA9C
:1001E000010685FA47F5A3FA87F586FA47F6A5FAD8
:1001F00087F68EB9EED1F0BC01F0FF0102F00702E4
:1002000032B110F8013B013A83EA010313B1F8D18E
:100210000020704701387047002D06BF354603386F
:10022000073815F0010F07D1013015F4807F02BFA8
:10023000013015F4C03F0130F0BC0138704700BFF9
:1002400081F0004102E000BF83F0004330B54FEA87
:1002500041044FEA430594EA050F08BF90EA020FF4
:100260001FBF54EA000C55EA020C7FEA645C7FEA87
:10027000655C00F0E2804FEA5454D4EB5555B8BFAA
:100280006D420CDD2C4480EA020281EA030382EA1B
:10029000000083EA010180EA020281EA0303362DAD
:1002A00088BF30BD11F0004F4FEA01314FF4801C80
:1002B0004CEA113102D0404261EB410113F0004F92
:1002C0004FEA03334CEA133302D0524263EB430349
:1002D00094EA050F00F0A780A4F10104D5F1200EE7
:1002E0000DDB02FA0EFC22FA05F2801841F1000142
:1002F00003FA0EF2801843FA05F359410EE0A5F116
:1003000020050EF1200E012A03FA0EFC28BF4CF046
:10031000020C43FA05F3C01851EBE37101F00045FC
:1003200007D54FF0000EDCF1000C7EEB00006EEB09
:100330000101B1F5801F1BD3B1F5001F0CD3490893
:100340005FEA30004FEA3C0C04F101044FEA4452EA
:1003500012F5800F80F09A80BCF1004F08BF5FEA71
:10036000500C50F1000041EB045141EA050130BD51
:100370005FEA4C0C404141EB010111F4801FA4F1F4
:100380000104E9D191F0000F04BF01460020B1FA49
:1003900081F308BF2033A3F10B03B3F120020CDA81
:1003A0000C3208DD02F1140CC2F10C0201FA0CF05F
:1003B00021FA02F10CE002F11402D8BFC2F1200CC4
:1003C00001FA02F120FA0CFCDCBF41EA0C0190407A
:1003D000E41AA2BF01EB0451294330BD6FEA0404C3
:1003E0001F3C1CDA0C340EDC04F11404C4F12002AE
:1003F00020FA04F001FA02F340EA030021FA04F3C0
:1004000045EA030130BDC4F10C04C4F1200220FA16
:1004100002F001FA04F340EA0300294630BD21FA54
:1004200004F0294630BD94F0000F83F4801306BF1A
:1004300081F480110134013D4EE77FEA645C18BF0E
:100440007FEA655C29D094EA050F08BF90EA020FA5
:1004500005D054EA000C04BF1946104630BD91EA9D
:10046000030F1EBF0021002030BD5FEA545C05D1A0
:100470004000494128BF41F0004130BD14F58004DF
:100480003CBF01F5801130BD01F0004545F0FE4153
:1004900041F470014FF0000030BD7FEA645C1ABF88
:1004A000194610467FEA655C1CBF0B46024650EABF
:1004B000013406BF52EA033591EA030F41F40021EB
:1004C00030BD00BF90F0000F04BF0021704730B571
:1004D0004FF4806404F132044FF000054FF0000146
:1004E00050E700BF90F0000F04BF0021704730B507
:1004F0004FF4806404F1320410F0004548BF4042DC
:100500004FF000013EE700BF42004FEAE2014FEA30
:1005100031014FEA02701FBF12F07F4393F07F4F0B
:1005200081F06051704792F0000F14BF93F07F4F3D
:10053000704730B54FF4607401F0004521F0004180
:1005400020E700BF50EA010208BF704730B54FF006
:1005500000050AE050EA010208BF704730B511F00B
:10056000004502D5404261EB41014FF4806404F143
:1005700032045FEA915C3FF4DCAE4FF003025FEAC5
:10058000DC0C18BF03325FEADC0C18BF033202EB4D
:10059000DC02C2F1200300FA03FC20FA02F001FAA7
:1005A00003FE40EA0E0021FA02F11444C1E600BF46
:1005B00070B54FF0FF0C4CF4E06C1CEA11541DBFF9
:1005C0001CEA135594EA0C0F95EA0C0F00F0DEF8C4
:1005D0002C4481EA030621EA4C5123EA4C5350EAA9
:1005E000013518BF52EA033541F4801143F48013FA
:1005F00038D0A0FB02CE4FF00005E1FB02E506F08B
:100600000042E0FB03E54FF00006E1FB03569CF0DF
:10061000000F18BF4EF0010EA4F1FF04B6F5007FE5
:1006200064F5407404D25FEA4E0E6D4146EB060657
:1006300042EAC62141EA55514FEAC52040EA5E50E0
:100640004FEACE2EB4F1FD0C88BFBCF5E06F1ED88A
:10065000BEF1004F08BF5FEA500E50F1000041EBC1
:10066000045170BD06F0004646EA010140EA02006E
:1006700081EA0301B4EB5C04C2BFD4EB0C0541EA90
:10068000045170BD41F480114FF0000E013C00F3A5
:10069000AB8014F1360FDEBF002001F0004170BDC9
:1006A000C4F10004203C35DA0C341BDC04F11404E2
:1006B000C4F1200500FA05F320FA04F001FA05F26E
:1006C00040EA020001F0004221F0004110EBD3703B
:1006D00021FA04F642EB06015EEA430E08BF20EA67
:1006E000D37070BDC4F10C04C4F1200500FA04F30A
:1006F00020FA05F001FA04F240EA020001F000419C
:1007000010EBD37041F100015EEA430E08BF20EA0E
:10071000D37070BDC4F1200500FA05F24EEA020E56
:1007200020FA04F301FA05F243EA020321FA04F085
:1007300001F0004121FA04F220EA020000EBD3703C
:100740005EEA430E08BF20EAD37070BD94F0000F3C
:100750000FD101F00046400041EB010111F4801F70
:1007600008BF013CF7D041EA060195F0000F18BF21
:10077000704703F00046520043EB030313F4801F5D
:1007800008BF013DF7D043EA0603704794EA0C0F17
:100790000CEA135518BF95EA0C0F0CD050EA41062D
:1007A00018BF52EA4306D1D181EA030101F00041AA
:1007B0004FF0000070BD50EA410606BF10461946D2
:1007C00052EA430619D094EA0C0F02D150EA0136DE
:1007D00013D195EA0C0F05D152EA03361CBF10461F
:1007E00019460AD181EA030101F0004141F0FE41BE
:1007F00041F470014FF0000070BD41F0FE4141F442
:10080000780170BD70B54FF0FF0C4CF4E06C1CEA41
:1008100011541DBF1CEA135594EA0C0F95EA0C0FF6
:1008200000F0A7F8A4EB050481EA030E52EA0335B1
:100830004FEA013100F088804FEA03334FF08055D2
:1008400045EA131343EA12634FEA022245EA1115FF
:1008500045EA10654FEA00260EF000419D4208BFB0
:10086000964244F1FD0404F5407402D25B084FEA5D
:100870003202B61A65EB03055B084FEA32024FF409
:1008800080104FF4002CB6EB020E75EB030E22BF66
:10089000B61A754640EA0C005B084FEA3202B6EB26
:1008A000020E75EB030E22BFB61A754640EA5C00D5
:1008B0005B084FEA3202B6EB020E75EB030E22BF65
:1008C000B61A754640EA9C005B084FEA3202B6EB66
:1008D000020E75EB030E22BFB61A754640EADC0025
:1008E00055EA060E18D04FEA051545EA16754FEA87
:1008F00006164FEAC30343EA52734FEAC2025FEAA5
:100900001C1CC0D111F4801F0BD141EA00014FF033
:1009100000004FF0004CB6E711F4801F04BF014304
:100920000020B4F1FD0C88BFBCF5E06F3FF6AFAE20
:10093000B5EB030C04BFB6EB020C5FEA500C50F1B0
:10094000000041EB045170BD0EF0004E4EEA113133
:1009500014EB5C04C2BFD4EB0C0541EA045170BD3A
:1009600041F480114FF0000E013C90E645EA060E7E
:100970008DE60CEA135594EA0C0F08BF95EA0C0FAC
:100980003FF43BAF94EA0C0F0AD150EA01347FF4F4
:1009900034AF95EA0C0F7FF425AF104619462CE7CB
:1009A00095EA0C0F06D152EA03353FF4FDAE10462E
:1009B000194622E750EA410618BF52EA43067FF47F
:1009C000C5AE50EA41047FF40DAF52EA43057FF40F
:1009D000EBAE12E74FF0FF3C06E000BF4FF0010C1A
:1009E00002E000BF4FF0010C4DF804CD4FEA410C7E
:1009F0007FEA6C5C4FEA430C18BF7FEA6C5C1BD04B
:100A000001B050EA410C0CBF52EA430C91EA030FCB
:100A100002BF90EA020F0020704710F1000F91EA28
:100A2000030F58BF994208BF90422CBFD8176FEAF6
:100A3000E37040F0010070474FEA410C7FEA6C5CC4
:100A400002D150EA013C07D14FEA430C7FEA6C5CCB
:100A5000D6D152EA033CD3D05DF8040B704700BFF7
:100A60008446104662468C461946634600E000BF45
:100A700001B5FFF7B7FF002848BF10F1000F01BD17
:100A80004DF808EDFFF7F4FF0CBF012000205DF8E2
:100A900008FB00BF4DF808EDFFF7EAFF34BF012067
:100AA00000205DF808FB00BF4DF808EDFFF7E0FF00
:100AB00094BF012000205DF808FB00BF4DF808ED51
:100AC000FFF7CEFF94BF012000205DF808FB00BFB8
:100AD0004DF808EDFFF7C4FF34BF012000205DF89A
:100AE00008FB00BF4FEA410C7FEA6C5C02D150EA80
:100AF000013C0AD14FEA430C7FEA6C5C02D152EA16
:100B0000033C02D14FF0000070474FF001007047E6
:100B10004FEA410212F5001215D211D56FF4787325
:100B2000B3EB625212D94FEAC12343F0004343EAC8
:100B3000505311F0004F23FA02F018BF40427047A3
:100B40004FF00000704750EA013005D111F000402D
:100B500008BF6FF0004070474FF00000704700BFC3
:100B60004A0011D212F5001211D20DD56FF478732C
:100B7000B3EB62520ED44FEAC12343F0004343EA81
:100B8000505323FA02F070474FF00000704750EACC
:100B9000013002D14FF0FF3070474FF00000704736
:100BA0004FEA4102B2F1E04324BFB3F5001CDCF18F
:100BB000FE5C0DD901F0004C4FEAC0024CEA5070C7
:100BC000B2F1004F40EB830008BF20F001007047F6
:100BD00011F0804F21D113F13872BCBF01F00040F9
:100BE000704741F480114FEA5252C2F11802C2F12B
:100BF000200C10FA0CF320FA02F018BF40F00100AC
:100C00004FEAC1234FEAD32303FA0CFC40EA0C005D
:100C100023FA02F34FEA4303CCE77FEA625307D19A
:100C200050EA01331EBF4FF0FE4040F440007047D1
:100C300001F0004040F0FE4040F40000704700BF6B
:100C4000024B4FF000629A60704700BF00ED00E079
:100C5000DFF834D0002103E00C4B5B5843500431E3
:100C60000B480C4B42189A42F6D30B4A02E0002381
:100C700042F8043B094B9A42F9D3FFF7E1FF00F039
:100C800083FA00F02BFA7047000002202458000875
:100C900000000020A0000020A00000208001002013
:100CA000FEE70000074A136823F004031360064BB5
:100CB000C0081870C0EB401300EB8300034BC0006A
:100CC0001880704710E000E0A0000020A200002083
:100CD000094B1B885843094B002258609A60012237
:100CE0001A601A68054902F00112012AF9D000239E
:100CF0000B608B60704700BFA200002010E000E096
:100D00004FF4077238B5B0FBF2F302FB1304DDB207
:100D1000A4B235B14FF40770013DFFF7D9FFEDB232
:100D2000F7E724B12046BDE83840FFF7D1BF38BD12
:100D30000FB407B504A951F8040B019101F066FF47
:100D400003B05DF804EB04B070470000084A136874
:100D500013F0400F064BFAD0C2B20A285A6005D1F0
:100D60001A685206FCD5024B0D205860704700BF30
:100D7000001001400020704710B5144B1A6892060D
:100D800022D513495A680B8813F4004FD2B2084693
:100D90001AD15C0409D50A2A02D00023038010BDB1
:100DA0006FEA43436FEA534303E00D2A03D143F450
:100DB00080430B8010BDC3F30D0101339BB2054C82
:100DC0000380C72B6254E8D810BD00BF001001405B
:100DD0006C010020A40000207FB5314B314D5843F9
:100DE00007EE900A0901B8EE677A07EE901AF8EE5E
:100DF000676A0226C7EE267A28464FF4C061BCEE29
:100E0000E77A8DED037ABDF80C4007EE104AB8EE94
:100E1000C77A77EEC77AB3EE007A67EE877AFCEE90
:100E2000E77A17EE903A03EB04141F4B1A6B42F06B
:100E300001021A635A6C42F010025A6401230193B2
:100E400032460023009600F082F828460722092146
:100E500000F06AF82846A5F57045A4B207220A21D9
:100E600000F062F8AC60EB6823F40043EB60EB68E1
:100E700043F00803EB60EB6843F00403EB60EB68BE
:100E8000032143F02003EB6025223346084600F09F
:100E900021F8EB6843F40053EB6004B070BD00BF71
:100EA00040420F000000024000380240084AD36868
:100EB00023F4E0631B041B0CC04343F0BF63000238
:100EC00043F4003300F4E0600343D360704700BF95
:100ED00000ED00E070B50546184614461E46FFF7C3
:100EE000E5FF0F20C6F1040205FA02F240FA06F50A
:100EF0000D4015436209920002F1604202F5614221
:100F000004F01F001168012383400B43136004F1B8
:100F1000604202F5614205F00F0592F8003343EAA2
:100F2000051582F8005370BD10B5CB0800EB8300A7
:100F300001F00701046A89000F238B4024EA0303B0
:100F40000362036A8A4042EA0301016210BD2DE98F
:100F5000F04F4FF0030C9B4600244FF0010A02F1C2
:100F6000FF380AFA04FE3EEA01032CD16500076847
:100F70000CFA05F6F64337400760076802FA05F9F0
:100F800049EA0707B8F1010F076013D88768099B82
:100F900037408760876803FA05F949EA07078760E1
:100FA000476827EA0E07476047680BFA04FE4EEAD7
:100FB00007074760C7680A9B3E40C660C66803FAD9
:100FC00005F53543C5600134102CCAD1BDE8F08F5A
:100FD000F0B52E4C256845F4803525600026254661
:100FE000D5F800E0294C1EF4003FB7B204D1013619
:100FF000B6F5005FF4D147E041F6FF75AF4243D04C
:10100000256C234E45F080552564356845F44045F0
:101010003560A56845F41445A56041EA036125687B
:1010200041F48001520841EA8010013A25F08075B0
:1010300040EA024025606060236843F080732360CB
:101040002368124A9B01FBD5124B196841F4807149
:101050001960196841F400711960196841F48061E0
:101060001960196841F005011960936823F00303C2
:101070009360936843F002039360936803F00C035A
:10108000082BFAD10020F0BD0120F0BD003802404D
:1010900000700040003C024070B50D4C25680026F1
:1010A00045F001052560A660256825F0847525F4C6
:1010B00080352560074D6560256825F4802525600D
:1010C000E660FFF785FF044B4FF000629A6070BD49
:1010D000003802401030002400ED00E010B5072376
:1010E000022208214FF4A870FFF7D6FFA820FFF7CF
:1010F000D9FD4FF4E1315420FFF76EFE00244FF488
:101100007A70FFF7FDFD214602480134FFF710FE1B
:10111000E4B2F4E7D854000800207047002070477C
:10112000012070470020704710B50C4630B9002AE6
:1011300005DDFFF71FFE2070012010BD002010BD4F
:1011400070B50E4615460C46A31B9D4204DD14F8EF
:10115000010BFFF7FBFDF7E7284670BD074B1A6848
:101160000AB9074A1A60186801446B46994296BF4B
:10117000024B4FF0FF301960704700BF7001002034
:10118000800100207047000070B50E4B0E4CE41A31
:10119000A41000251E46A54204D056F825309847D5
:1011A0000135F8E7FFF7EEFF084C094BE41AA410ED
:1011B00000251E46A54204D056F825309847013533
:1011C000F8E770BD24580008245800082458000887
:1011D000245800082DE9F04788B0002B149F12997D
:1011E000109EDDF84CA01D4627F02007BBBF03F181
:1011F00000431D4600232D231446B8BF1446462F36
:101200000B7003D0452F03D1013601E0032300E02A
:10121000022307AA049206AA03928DE848042246F4
:101220002B4601F099FD472F804602D1119BDB0729
:1012300028D5462F08EB060911D198F80030302B3D
:101240000AD10022002320462946FFF719FC18B9CD
:10125000C6F10106CAF80060DAF8003099440022AD
:10126000002320462946FFF70BFC08B9302202E094
:10127000CDF81C9006E0079B994503D9591C0791AE
:101280001A70F8E7079B159AC8EB030340461360F2
:1012900008B0BDE8F08773B503460029B8BF4942DE
:1012A00003F8022BB4BF2D222B220929427019DD2D
:1012B0000DF1070216460A2591FBF5F405FB141102
:1012C0003031092C02F8011D2146F5DC3031541E65
:1012D00002F8011CB4421A460AD214F8012B03F892
:1012E000012BF7E730241A46214402F8024B5970CB
:1012F000101A02B070BD00002DE9F04F91B00C46FD
:10130000DDF8688016461F46054602F0A9FE036810
:1013100008931846FEF73CFF00230E93D8F80030E0
:101320000990073323F0070303F1080294F818A08B
:10133000D4F800B0C8F80020D3E90023C4E9122390
:10134000D4E9128929F000430B93CDF828804FF09F
:10135000FF32A74BDDE90A01FFF7C4FBA0B94FF04C
:10136000FF32A34BDDE90A01FFF79EFB60B90022C3
:10137000002340464946FFF78DFB10B12D2384F82A
:1013800043309C4B9C4A0AE042464B464046494605
:10139000FFF7A8FB002800F09281984B984ABAF119
:1013A000470F8CBF90469846032323612BF004031C
:1013B00023604FF000093DE0BAF1670F00F08A8129
:1013C000BAF1470F00F08681236000210DF133024E
:1013D0000193636805900292009342464B46069142
:1013E000CDF810A0CDF80CE02846FFF7F3FE0AF088
:1013F000DF03472B804600F08481BAF1650F0D9919
:1014000000F28D810139524604F150000D91FFF731
:1014100042FF0E9A8318012A8146236100F37C81E2
:101420002268D10700F178819DF8333013B12D2364
:1014300084F84330009733460FAA2146284600F02F
:101440009FF9013002D14FF0FF3096E123685A0531
:1014500001D4236965E0BAF1650F40F2D58000221E
:101460000023D4E91201FFF70BFB78B30123654A8F
:1014700031462846B8470130E5D00E9B0D9A9A4276
:101480000BDB2368D80708D423689B0740F1118140
:101490004FF0000804F1190906E1099B089A31464A
:1014A0002846B8470130CED04FF0000804F11A09A1
:1014B0000E9B013B9845E7DA01234A463146284610
:1014C000B8470130BFD008F10108F1E70D9B002BB0
:1014D00029DC01234B4A31462846B8470130B2D0B7
:1014E0000D9B23B90E9B13B92368D907CCD5099B53
:1014F000089A31462846B8470130A4D04FF0000979
:1015000004F11A0A0D9B5B42994509DA0123524600
:1015100031462846B847013095D009F10109F1E775
:101520000E9B4246A7E00E9AA36D9A42A8BF1A46A8
:10153000002A914606DC4FF0000A29EAE97904F115
:101540001A0B11E01346314642462846B84701308F
:10155000F1D178E701235A4631462846B847013091
:101560003FF471AF0AF1010AA36DC9EB0302924582
:10157000F0DB08EB03090D9A0E9B9A420FDB236800
:10158000DA070CD40E9B0D9A9844C9EB08089B1AF5
:101590009845A8BF9846B8F1000F08DC0FE0099BFA
:1015A000089A31462846B8470130EBD14BE743460D
:1015B0004A4631462846B84701303FF444AF4FF021
:1015C000000928EAE87804F11A0A09E001235246E2
:1015D00031462846B84701303FF435AF09F10109DB
:1015E0000D9A0E9B9B1AC8EB03039945EEDB4BE764
:1015F000FFFFEF7F0055000804550008085500085C
:101600000C550008105500080E9A012A01DCDB0772
:1016100038D50123424631462846B84701303FF4C9
:1016200012AF099B089A31462846B84701303FF46B
:101630000AAF00220023D4E91201FFF721FA20B1FA
:101640004FF0000804F11A0A0EE00E9B08F10102A7
:10165000013B19E00123524631462846B847013084
:101660003FF4F1AE08F101080E9B013B9845F1DB18
:101670004B4604F1500231462846B84701307FF40A
:1016800003AFE0E60123424631462846B847013021
:10169000EED1D8E601234A4631462846B847013004
:1016A0003FF4D1AE08F10108E3680F9A9B1A984500
:1016B000F0DBE0680F9B9842B8BF18465DE06268B7
:1016C000531C0EA84BF480630DF1340E7FF474AEFE
:1016D000062201E012B90122626075E6002106913E
:1016E0000DF133018DE80C00236005904246CDF8E2
:1016F00010A0CDF80CE002914B462846FFF76AFD9A
:1017000080460D9BD81C02DB626893421DDDAAF166
:10171000020A5FFA8AFA70E60133236184E6BAF1BD
:10172000660F14D10029636807DD216113B92268AF
:10173000D2071DD501330B4419E013B92268D00735
:1017400001D5023313E0012311E04FF0670A0D9B2E
:101750000E9A934205DB22682361D10708D5013335
:1017600005E0002BD4BFC3F102030123134423611E
:101770000D9BA3654FF0000956E611B0BDE8F08F50
:101780002DE9F04791461F460A698B68DDF82080F5
:101790009342B8BF1346C9F8003091F8432006467B
:1017A0000C4612B10133C9F800302368990642BFD4
:1017B000D9F800300233C9F80030256815F0060565
:1017C00010D104F1190A07E0012352463946304688
:1017D000C04701301AD00135E368D9F800209B1AC0
:1017E0009D42F1DB94F843302268003318BF012397
:1017F00092060FD5E1185A1C302081F8430022448C
:1018000094F8451082F84310023303E04FF0FF30A4
:10181000BDE8F08704F1430239463046C047013045
:10182000F4D02268D9F80050E36802F00602042AD6
:1018300008BF5D1B2269A3680CBF25EAE57500257A
:101840009342C4BF9B1AED184FF000091A344D455E
:1018500009D00123224639463046C0470130D5D051
:1018600009F10109F3E70020BDE8F0872DE9F04315
:1018700017460A7E85B06E2A984606460C460C9B93
:1018800001F1430E00F0AE8011D8632A22D009D8AE
:10189000002A00F0BB80582A40F0CA8081F8452019
:1018A000834955E0642A1ED0692A1CD0C0E0732AFF
:1018B00000F0B08009D86F2A2ED0702A40F0B8808E
:1018C0000A6842F020020A603EE0752A24D0782A95
:1018D0003AD0ADE01A6801F14205111D1960136894
:1018E00084F84230A8E021681A6811F0800F02D015
:1018F000111D196008E011F0400F02F10401196098
:1019000002D0B2F9003000E01368002B3CDA2D223F
:101910005B4284F8432037E021681A6811F0800F99
:1019200002D0111D196007E011F0400F02F104010F
:10193000196001D0138800E01368227E5C496F2A89
:1019400014BF0A2208221BE078225A4984F8452055
:101950002268186812F0800F00F104051D6003D1A1
:10196000550601D5038800E00368D00744BF42F064
:10197000200222601BB9226822F02002226010227D
:10198000002084F8430001E049490A226568A56007
:10199000002D08DB206820F0040020602BB9002D0A
:1019A0007DD175460CE0002B79D07546B3FBF2F083
:1019B00002FB1033CB5C05F8013D03460028F5D14E
:1019C000082A0BD12368DA0708D5236962689A428E
:1019D000DEBF302305F8013C05F1FF35C5EB0E03F2
:1019E00023612EE008681A68496910F0800F03D05F
:1019F000101D1860136808E010F0400F02F1040099
:101A00001860136801D0198000E019600023236179
:101A1000754616E01A68111D196015686268002184
:101A20002846FEF7BDFB08B1401B6060636804E018
:101A300004F1420584F8422001232361002384F845
:101A40004330CDF800803B4603AA21463046FFF7DD
:101A500097FE013002D14FF0FF3026E023692A467D
:101A600039463046C0470130F5D023689B0710D572
:101A7000002504F1190907E001234A46394630469A
:101A8000C0470130E7D00135E368039A9B1A9D42B5
:101A9000F2DBE068039B9842B8BF184605E00B787C
:101AA00084F8423004F142058AE705B0BDE8F083CE
:101AB00012550008235500082DE9F04F9A468B680F
:101AC00016465A1EB2F5AE7F87B083BF6FF4AE7272
:101AD0009B180193002386BF40F25D138B60019336
:101AE0000B68884643F4F06348F81C3B4FF0000B4A
:101AF00007460C4645465A46CDF810B0CDF80CB016
:101B0000D946CDF808B0A168002900F0E580336817
:101B10001B78492B70D016D8392B0DD8312B40D2D9
:101B20002D2B46D002D82B2B43D0D5E02E2B00F006
:101B30009280302B23D0CFE0452B00F09580462BB0
:101B400077D0412B0CE0652B00F08E800AD8542B07
:101B500075D002D84E2B34D0BEE0592B75D0612BF6
:101B600046D0B9E06E2B2CD004D8662B61D0692BFF
:101B700042D0B1E0742B62D0792B66D0ACE0206803
:101B800010F4807F0DD0019B20F08000206009F1CF
:101B90000109002B00F08780013B01310193A16016
:101BA00081E012EB0B0F40F09780216821F4C071A7
:101BB00005E02168080640F18F8021F08001216056
:101BC0006FE06AB9B9F1000F0CD1216801F4E0604F
:101BD000B0F5E06F06D121F4F0612160012260E0F0
:101BE000022A5DD0BBF1010F1ED0BBF1040F1AE039
:101BF000012A71D1022254E0BBF1000F0ED1B9F1DC
:101C0000000F6CD1216801F4E060B0F5E06F6AD19B
:101C100021F4F06121604FF0010B42E0BBF1030FB2
:101C200002D0BBF1050F57D10BF1010B5FFA8BFB13
:101C300037E0BBF1020F4FD14FF0030B31E0BBF1A6
:101C4000060F49D14FF0070B2BE0BBF1070F43D133
:101C50004FF0080B25E0216888053DD521F420715F
:101C60002160CDF808901CE0216801F4A060B0F577
:101C7000806F04D048052FD5B9F1000F33D0880507
:101C80005CBF0298049521F4F06158BFC0EB0900D5
:101C900041F4C07158BF039021604FF0000900E08B
:101CA00003222B700135A368013BA3602369013334
:101CB00023617368013B002B736003DD33680133DC
:101CC000336020E7D4F88031059231463846984792
:101CD000059A00283FF417AFB9F1000F03D023682D
:101CE00023F480732360013A012A0ED845450AD9AE
:101CF000D4F87C3115F8011D3246384698472369DF
:101D0000013B2361F2E70126ADE00BF1FF33062B27
:101D100022D8BBF1020F12D9ABF1030B5FFA8BFB98
:101D2000CBEB050B5D4517D0D4F87C3115F8011DC0
:101D30003246384698472369013B2361F2E745451F
:101D4000E1D9D4F87C3115F8011D32463846984760
:101D50002369013B2361F2E72368DA052CD55B0593
:101D60000CD54545CFD9D4F87C3115F8011D324644
:101D7000384698472369013B2361F2E715F8011CB7
:101D80002369652903F1FF3305F1FF3B23610DD082
:101D900045290BD0D4F87C31324638469847236920
:101DA00015F8021C013BA5F1020B2361D4F87C312C
:101DB0003246384698475D46266816F0100651D1DF
:101DC0002E70236803F4C063B3F5806F05D1029BC6
:101DD000C3EB09035A4263B915E0039B9BB1049915
:101DE0000A2332460131384600F08AFE039B049DE7
:101DF000C21A04F26F139D4228BF04F5B7751C493F
:101E0000284600F03BF800224146384600F07CF8B6
:101E10002268DAF8003012F0020F8046894603D0BB
:101E20001A1DCAF8002006E012F0040503F10402AE
:101E3000CAF8002003D01B68C3E900890EE01F68C0
:101E400002460B46FEF74EFE18B1284600F012F887
:101E500003E040464946FEF7A3FE3860E3680133DD
:101E6000E36000E00026304607B0BDE8F08F00BF19
:101E700034550008004870470000C07F0EB400B51C
:101E80009CB04FF402711DABADF814100290069097
:101E90006FF000410A48049107914FF6FF7153F823
:101EA000042BADF816100068019302A902F0F6FDAC
:101EB000029B00221A701CB05DF804EB03B070475F
:101EC000640000202DE9F0410F46904602F0AEFB81
:101ED00004460D46B8F1000F11D0C7F30A53C3F101
:101EE0006B03002B0BDD1B0503F17F55002405F56B
:101EF000401522462B46FEF75BFBBDE8F0812046ED
:101F00002946BDE8F08100002DE9F04F9FB0002385
:101F100080460C4615921A934FF0000A4FF0000BC2
:101F20001991199B1A780D2A05D8092A13D2002A6B
:101F300000F0AF8112E02B2A04D02D2A04D0202AF1
:101F40000CD108E0002200E0012209925A1C1992EB
:101F50005B782BB99DE101331993E2E700230993E4
:101F6000199D2B78302B5CD16B78582B01D0782BB6
:101F70004CD1099B01931AAB0093A84A1BAB19A93A
:101F8000404601F09AFD10F00706044600F08585F2
:101F9000062E05D1013500231995099300F07DBD6A
:101FA0001A9A3AB135211CA802F028FC1A99404629
:101FB00002F0AAF8062E22D8DFE806F0040D081871
:101FC0001D0D04004FF0000BDA4618E0DDF870A09C
:101FD000DDF874B013E01D9B1B9ADDF870A023F4AC
:101FE000801302F2334243EA025B08E0DFF830B2CA
:101FF0004FF0000A03E06FF0004B4FF0FF3A21076B
:1020000040F14B854BF0004B00F047BD199B5A1C2B
:1020100019925B78302BF9D0002B00F03E8501231C
:1020200000E000230893199B0A9300230393059370
:1020300004930A22199D2E78A6F13003D9B20929FA
:1020400011D804990829D5BF0599039902FB0133DA
:1020500002FB0133D4BF05930393049B0135013385
:1020600004931995E6E7404601F0FAFF07684046F9
:1020700001F0F6FF0068FEF78BF839460246284665
:1020800002F089FF074628B100203346049D02462E
:1020900001465AE0404601F0E3FF0068FEF778F899
:1020A000199B1A181992049A1B5C002A45D11046F4
:1020B000302B05D1199B5A1C199201305B78F7E738
:1020C000A3F13102082A46D8199A0A920246002042
:1020D0000546303B00F1010129D00A4405EB000C14
:1020E00029460A2661450FD0013101F1FF3EBEF1BC
:1020F000080F03DC059F77430597F3E71029DEBF40
:10210000039F77430397EDE72844082800F1010572
:1021100005DC05980A2101FB0033059306E0102D2C
:10212000DFBF03980A2101FB003303930021199BB1
:10213000581C19905B78084602E0049D38463A46E0
:10214000A3F130010929C4D90121652B01D0452B08
:1021500051D16DB904E0652B40F0AD84002201211E
:1021600028B9089B002B00F09480054600E000256C
:10217000199C631C199363782B2B06D02D2B02D04E
:102180000026069606E0012300E000230693A31C28
:102190001993A378A3F13006092E2BD8302B04D144
:1021A000199B5E1C19965B78F8E7A3F13106082E9F
:1021B00021D8A3F1300E199B4FF00A0C1F46199B32
:1021C0005E1C19965B78A3F13009B9F1090F04D8A8
:1021D0000CFB0E3EAEF1300EF1E7F61B082E44F676
:1021E0001F6902DCF145A8BFF146069E2EB1C9F178
:1021F000000902E019944FF00009002D51D1002888
:1022000040F04B84089A002A40F04784002940D1CE
:102210004E2B1FD006DC492B09D03AE05055000860
:102220000000F07F692B02D06E2B13D031E0A7495C
:1022300019A801F073FE60B3199BA549013B19A8C9
:10224000199301F06BFE10B9199B01331993DFF854
:102250009CB21AE09F4919A801F060FEC8B1199B11
:102260001B78282B0FD11CAA9B4919A801F069FEE5
:10227000052808D11D9BDDF870A043F0FF4B4BF4FF
:10228000E00B00F00ABCDFF868B24FF0000A00F083
:1022900004BC159B1994002B00F00A8400230993B9
:1022A000FDE3049B0598002B08BF2B46102D2C4600
:1022B000C2EB0909A8BF10240493FEF703F9092C07
:1022C00082468B4613DD854B03EBC40353E912238F
:1022D000FEF76EF9064603980F46FEF7F3F802463E
:1022E0000B4630463946FDF7B1FF82468B460F2D2F
:1022F00036DCB9F1000F00F0D08324DDB9F1160F00
:1023000007DC764D05EBC90952465B46D9E9000169
:1023100014E0C5F12503994522DC704CC5F10F0589
:1023200004EBC501C5EB090552465B46D1E9000146
:1023300004EBC504FEF73CF9D4E90023FEF738F9B5
:1023400082468B46A9E319F1160F09DB634DA5EB15
:10235000C909D9E9002350465946FEF753FAEFE779
:102360002C1B4C44002C56DD14F00F010AD05B4BA3
:1023700003EBC10152465B46D1E90001FEF718F9B3
:1023800082468B4634F00F0400F0B680B4F59A7F95
:102390000BDD0024A146059404942223C8F80030E4
:1023A000DFF848B14FF0000A7AE100234C4E2411C7
:1023B000504659461F46012C0ADDE20704D5D6E9EE
:1023C0000023FEF7F5F80123013764100836F2E721
:1023D0000BB182468B46424BABF1547B03EBC707F4
:1023E00052465B46D7E90001FEF7E2F821F00043D0
:1023F0008B460A461B0D3B491B058B428246C8D8BB
:10240000A1F580118B4286BFDFF8E8B04FF0FF3AAC
:1024100002F1547B70E06FD0644214F00F020AD0D6
:102420002E4B03EBC20350465946D3E90023FEF777
:10243000E9F982468B4624115ED01F2C04DD00246E
:10244000A1460594049424E114F0100F0CBF00235E
:102450006A23254E0393504659460023002C09DD7C
:10246000E20704D5D6E90023FEF7A2F801236410A1
:102470000836F3E70BB182468B46039BEBB1CBF3F7
:102480000A53C3F16B03002B594616DD1F2B0EDDDB
:10249000342BDEBF203B4FF0FF3202FA03F34FF044
:1024A000000ACCBF4FF05C7B03EA010B05E04FF064
:1024B000FF3202FA03F303EA0A0A0022002350461D
:1024C0005946FEF7DDFA0028B9D117E00555000896
:1024D000945600080D5500083C5500084857000860
:1024E000205700080000A07C685500080000F07F1D
:1024F0000000F8FFFFFFEF7F00230393059B00938D
:10250000049A0A992B46404601F050FE0590002897
:102510003FF43FAFB9F1000FC9F10003A8BF00239A
:102520000E93002429EAE9730F93A146059B4046C8
:10253000596801F0B4FD049000283FF42EAF059BCC
:102540001A69023203F10C0192000C3001F094FD83
:102550001CAB01931BAB009352465B464046CDE952
:102560000AAB02F0D4F81A9000283FF416AF01210C
:10257000404601F0A6FE814600283FF40EAF1B9BAB
:1025800003991C9D002BADBF0E9A0F9A0E9FD71872
:10259000B8BFD21AA3EB01032B44B249A8BF0F9ACC
:1025A000013B8B42C5F1360580F28680C91A1F298E
:1025B000A5EB01054FF0010077DC00FA01F314935D
:1025C000002306937E19039BB74215441D443B46E6
:1025D000A8BF3346AB42A8BF2B46002BC2BFF61A9A
:1025E000ED1AFF1A0E9B002B6BD1002E00F3828098
:1025F0000F9B002B40F08880002D00F38F80002F70
:1026000000F39680049A1A99404601F0B0FF044600
:1026100000283FF4C2AEC36808930023C360494654
:1026200001F089FF002880F29180089B002B40F088
:102630000D82BAF1000F40F00982CBF31303002B97
:1026400040F004822BF000431B0D1B05B3F1D66F45
:1026500040F2FC816369002B74D021460122404680
:1026600001F018FF4946044601F065FF002840F3D9
:10267000ED812BF00043039A1B0D1B05002A00F08F
:102680009480B3F1D66F00F39080B3F15C7F00F3D8
:10269000DF8122234FF0000A4FF0000BC8F8003012
:1026A000059B002B40F0E581F7E16F4E1490F61A80
:1026B00000FA06F3069385E700230693012314939B
:1026C00080E749461A46404601F096FE81460028BA
:1026D0003FF463AE01461A9A404601F0FBFD0890B4
:1026E00000283FF45AAE1A99404601F00DFD089BB0
:1026F0001A937AE732461A99404601F0CBFE1A90B7
:1027000000287FF475AF48E60F9A0499404601F01F
:1027100073FE049000287FF46FAF3EE62A460499CA
:10272000404601F0B7FE049000287FF468AF34E61D
:1027300049463A46404601F0ADFE814600287FF406
:1027400061AF2AE62369012B87DC7FE162D1089A19
:10275000CBF3130322B345498B425A462ED1039B38
:10276000514663B1424B1340B3F1D46F07D81B0DF0
:10277000C3F16B034FF0FF3000FA03F301E04FF0B9
:10278000FF338B421AD13B498A4202D101333FF4D5
:1027900004AE374B134003F5801B4FF0000A55E1A0
:1027A00063B9BAF1000F09D163E7A3F580136FEAAB
:1027B000135B6FEA0B5B4FF0FF3A47E1069B13B1E7
:1027C00013EA0B0F02E0149B13EA0A0F00F03E819C
:1027D000089B039A5046594653B1FFF773FB0246D4
:1027E0000B46DDE90A01FDF731FD82468B462DE1FE
:1027F000FFF768FB02460B46DDE90A01FDF724FD01
:102800000022002382468B46FEF73AF900287FF427
:1028100040AF1BE14946204601F0C7FF00224FF0C0
:10282000804306460F46FEF73FF9002841D0089B3B
:1028300013B10022104B0FE0BAF1000F03D1CBF31C
:1028400013033BB91CE0BAF1010F03D1BBF1000F38
:102850003FF41FAF094B0022CDE906230026064FA7
:102860003CE000BF02FCFFFFE2FBFFFFFFFF0F00A9
:102870000000F07FFFFFEF7F0000F03F0000F0BF9F
:102880000022994B30463946FEF704F940B93046EC
:1028900039460022954BFDF78BFE06460F4601E0B8
:1028A000924F002607F1004316961793DDE9162391
:1028B00012E08E4B304639460022FDF779FE089B28
:1028C00006460F4623B901F100431090119301E031
:1028D000CDE91067DDE91023CDE906232BF0004593
:1028E0002D0D834B2D059D422BD1DDE90A23ABF144
:1028F000547B50465946CDE90C2301F097FE024621
:102900000B46DDE90601FDF753FE52465B46FDF737
:102910009DFC21F000431B0D764A1B059342824625
:102920000CD9754B0D9A9A4203D10C9B01333FF49D
:1029300034ADDFF8C4B14FF0FF3A76E001F1547BDB
:102940003BE0039B3BB3B5F1D46F24D85EA3D3E93E
:10295000002330463946FEF7A7F8B8B1394630466D
:10296000FEF7FEF8002808BF0120FDF7ABFD089B2D
:1029700006460F4623B901F100431290139301E07C
:10298000CDE91267DDE91223CDE90623079B03F1A8
:10299000D6635B1B0793DDE90A01DDE906AB01F0B5
:1029A00045FE02460B4650465946FDF701FEDDE95D
:1029B0000A23FDF74BFC82468B46039B002B34D148
:1029C0002BF000431B0D1B059D42CDF828B02CD1E8
:1029D00039463046FEF79CF8FDF784FD0B4602466B
:1029E00039463046FDF730FC089BCDE9060133B986
:1029F000BAF1000F03D10A9BC3F313067EB134A3CF
:102A0000D3E90023DDE90601FEF744F888BB32A3D1
:102A1000D3E90023DDE90601FEF75AF804E030A30C
:102A2000D3E90023FEF736F818BB1A99404601F0A7
:102A30006BFB0499404601F067FB4946404601F0B4
:102A400063FB2146404601F05FFB6FE5039B83B1CA
:102A50002A4B0D9300230C9350465946DDE90C2375
:102A6000FDF7A6FD82468B4619B910B92223C8F896
:102A700000301A99404601F047FB0499404601F0A6
:102A800043FB4946404601F03FFB0599404601F0B3
:102A90003BFB2146404601F037FB159B13B1159ACD
:102AA000199B1360099B1BB150460BF1004107E0D5
:102AB0005046594604E000252A460121FFF747BB4E
:102AC0001FB0BDE8F08F00BF0000C0FFFFFFDF4177
:102AD0009535A094FFFFDF3F35E5AF350000E03FBF
:102AE0009535A094FFFFCF3F0000F03F0000E03F8E
:102AF0000000E07FFFFF9F7CFFFFEF7F0000503969
:102B00002DE9F04780464048D0F800900F463D46FA
:102B100015F8014B09EB0400407800F0080000F0C4
:102B2000FF0608B12F46F2E72D2C03D1BD1C7C789F
:102B3000012603E02B2C04BF7C78BD1C13B1102BA5
:102B40000AD15BE0302C57D1287800F0DF005828FC
:102B50004DD16C7810230235002E14BF4FF0004C7D
:102B60006FF0004C0027BCFBF3FA384603FB1ACC8D
:102B700009EB040E9EF801E01EF0040F01D0303C7A
:102B80000BE01EF0030E1BD0BEF1010F0CBF4FF087
:102B9000370E4FF0570ECEEB0404A34210DDB7F111
:102BA000FF3F0AD0504506D801D1644503DC03FB42
:102BB0000040012701E04FF0FF3715F8014BD7E740
:102BC0007B1C0CD1002E4FF0220314BF4FF00040AD
:102BD0006FF00040C8F800302AB9BDE8F08706B1B0
:102BE000404272B107B1691E1160BDE8F087302420
:102BF000002BB1D10823AFE70A23ADE7302CA3D0D7
:102C0000AAE7BDE8F08700BF00000020094B70B5BF
:102C10001C6805460E4624B1A36913B9204600F08E
:102C200077FE33462A46A1682046BDE8704002F090
:102C300053B800BF640000202DE9F74F03690C6909
:102C40009C42804600F38380013C01F114074FEA67
:102C5000840E00F1140657F8245006EB0E0301937E
:102C6000013556F82430B3FBF5F507EB0E09002DBE
:102C700039D04FF0000A3846B446D34650F8042BFA
:102C800093B205FB03A34FEA134A9BB2C3EB0B03BA
:102C9000120CBCF800B005FB02A213FA8BF34FEA4A
:102CA000124A1FFA82FBDCF80020CBEB124202EB47
:102CB00023429BB243EA024381454FEA224B4CF840
:102CC000043BDBD256F80E306BB9019B043B9E42AD
:102CD0001A4602D3C8F8104005E01268043B002AE7
:102CE000F8D1013CF3E7404601F025FC00282CDB3D
:102CF000013530464FF0000E57F8041BD0F800C0E5
:102D00008AB2C2EB0E03090C13FA8CF3C1EB1C421E
:102D100002EB23429BB243EA0243B9454FEA224EFB
:102D200040F8043BE8D256F8242006EB840362B94D
:102D3000043B9E421A4602D3C8F8104005E01268D0
:102D4000043B002AF8D1013CF3E7284600E00020CC
:102D500003B0BDE8F08F00002DE9F04F456A97B051
:102D60008246239CCDE9022345B9102001F07CF96D
:102D7000CAF82400456085600560C560DAF8243033
:102D8000196859B15A684A60012393408B605046D4
:102D900001F0BAF9DAF8243000221A60039BA04A45
:102DA000002BBFBF01232360039B23F00043B8BF68
:102DB0000393DDF80C80A4BF0023236028F00043B8
:102DC0001B0D1B0593421DD1229A42F20F73136013
:102DD000029B43B9934A944BC8F31300002814BFD5
:102DE0001846104600E09048249B002B00F04A85CE
:102DF000C37813B100F1080300E0C31C249A1360E8
:102E000000F040BDDDE902450022002320462946AE
:102E1000FDF736FE074658B1229A01231360249B22
:102E2000002B00F0228581481860013800F02ABD8F
:102E300014AB019315AB009322462B46504601F08C
:102E400066FCC8F30A56059056B1C5F3130343F068
:102E50007F51204641F44011A6F2FF3611971DE044
:102E6000159B149E1E4406F23243202B0ADD029A63
:102E700006F21240C3F1400322FA00F008FA03F30D
:102E8000184304E0C3F12000029B03FA00F0FDF7B1
:102E900019FB0123A1F1F871013E11930022644B4B
:102EA000FDF7D2F958A3D3E90023FDF781FB58A31E
:102EB000D3E90023FDF7CAF9044630460D46FDF775
:102EC00011FB55A3D3E90023FDF772FB02460B4625
:102ED00020462946FDF7BAF904460D46FDF718FECF
:102EE00000228346002320462946FDF7D3FD58B132
:102EF0005846FDF7F7FA02460B4620462946FDF7ED
:102F0000BFFD08B90BF1FF3BBBF1160F0DD84949C6
:102F100001EBCB01DDE90223D1E90001FDF7D8FD8A
:102F200030B10BF1FF3B002300E00123109300E0E0
:102F30001090149B9E1B731E089343BFC3F100099E
:102F4000002308934FF00009BBF1000F07DB089B3B
:102F5000CDF834B05B4408930023099306E0CBF12D
:102F6000000309930023CBEB09090D93209B092B48
:102F700027D8052BC4BF043B2093209BA3F1020359
:102F8000CCBF00250125032B20D8DFE803F0060E77
:102F90000204012302E0012308E000230C93219B9B
:102FA000002B1CDD069398461EE000230C93219B0A
:102FB0005B4403F1010806934346012BB8BF01238C
:102FC00012E00125002320930C9501E001230C93CE
:102FD0004FF0FF33069398460022122303E00123AB
:102FE000069398461A462192DAF82440002262603D
:102FF000042101F114029A421ED862680132626013
:103000004900F6E7AFF3008061436F63A787D23FC3
:10301000B3C8608B288AC63FFB799F501344D33FC7
:103020000000F07F915600089A56000811550008DC
:103030000000F83F485700086168504601F02FF83B
:10304000DAF8243020601B680793B8F10E0F00F205
:103050005D81002D00F05A819DED027BBBF1000FD8
:103060008DED0E7B31DDA04A0BF00F0302EBC303A5
:1030700093ED007B4FEA2B14E2068DED0A7B0CD515
:103080009A4BDDE90E01D3E90823FDF7BBFB04F001
:103090000F04CDE90201032600E00226934D6CB136
:1030A000E30708D5DDE90A01D5E90023FDF780FA39
:1030B000CDE90A01013664100835F0E7DDE90A239D
:1030C000DDE90201FDF79EFB20E0CBF1000404B333
:1030D000854B864D04F00F0203EBC203D3E90023B6
:1030E000DDE90E01FDF764FACDE9020124110023A8
:1030F000022654B1E70705D5D5E90023FDF758FAB4
:103100000136012364100835F3E71BB1CDE9020154
:1031100000E00226109BEBB1DDE902450022744B72
:1031200020462946FDF7B6FCA0B1B8F1000F11D03A
:10313000069B002B40F3E6800BF1FF330A9300223D
:103140006C4B20462946FDF733FA0136CDE90201E2
:10315000069F02E0CDF828B047463046FDF7C2F999
:10316000DDE90223FDF724FA0022634BFDF76EF838
:103170000446A1F15075CFB90022604BDDE9020190
:10318000FDF762F822462B46CDE90201FDF7A0FCCF
:10319000002840F04182224605F10043DDE90201AA
:1031A000FDF778FC002840F02E82ABE00C9A4E4BE5
:1031B000791E002A4AD003EBC103D3E90023002083
:1031C0004F49FDF71FFB22462B46FDF73DF8079CB4
:1031D00005460E46DDE90201FDF79AFC1290FDF767
:1031E00081F902460B46DDE90201FDF72DF8129B3D
:1031F000303304F8013B2A463346CDE90201FDF79E
:1032000049FC002840F02183DDE9022300203849F1
:10321000FDF71AF82A463346FDF73CFC002840F03B
:10322000D280079BE31ABB426CDA0022314B28465E
:103230003146FDF7BDF9002205460E462D4BDDE96E
:103240000201FDF7B5F9CDE90201C3E703EBC101C6
:1032500022462B46D1E90001FDF7AAF9079BCDE9EB
:103260001201DC191D46DDE90201FDF751FC06469D
:10327000FDF738F9303602460B46DDE90201FCF76E
:10328000E3FF05F8016BAC42CDE902014FF000020B
:1032900023D11B4BDDE91201FCF7D8FF02460B4698
:1032A000DDE90201FDF714FC002840F08C80DDE927
:1032B000122300201249FCF7C7FF02460B46DDE946
:1032C0000201FDF7E7FBE8B114F8013C302B04F1F3
:1032D000FF3240F0BA821446F6E7064BFDF768F974
:1032E000CDE90201BFE700BF48570008205700089A
:1032F0000000F03F0000244000001C40000014408B
:103300000000E03FDDE90E34CDE90234159B002BCF
:103310007CDBBBF10E0F79DC8F4B03EBCB03D3E9E6
:103320000067219B002B14DAB8F1000F11DC40F08C
:103330006C810022894B30463946FDF739F9DDE9C9
:103340000223FDF7BBFB45464646002840F05F815F
:1033500066E1079C32463B46DDE90201FDF752FA81
:10336000FDF7D6FB0546FDF7BDF832463B46FDF7B7
:103370001FF90B460246DDE90201FCF765FF05F186
:10338000300E04F801EB079BC3EB040EF045CDE9CA
:1033900002012ED102460B46FCF758FF80468946B3
:1033A00002460B4630463946FDF774FB78B9424673
:1033B0004B4630463946FDF763FB002800F0478254
:1033C000E90704D443E2DDF828B000E01C4614F815
:1033D000012C392A04F1FF3307D1079A9A42F5D11B
:1033E000079930220BF1010B0A701A7801321A701A
:1033F0002DE200225A4BFDF7DBF800220023CDE935
:103400000201FDF73DFB0028A4D020E20C9A002A1F
:103410002DD0209A012A0ADC119A12B103F233430B
:1034200002E0149BC3F13603099D4C4615E0099B4D
:1034300008F1FF35AB42BFBF099B0995EA1A0D9B06
:10344000B7BF9B185D1B0D930025B8F1000FB9BFE6
:10345000C8EB090400234C464346089A01211A444C
:1034600050469944089200F02CFF064602E0099D60
:103470000C9E4C465CB1089B002B08DDA342089AC9
:10348000A8BF2346C3EB0909E41AD31A0893099B82
:10349000002B1DDD0C9BABB185B131462A46504651
:1034A00000F0AAFF059A01460646504600F012FFBA
:1034B00005990746504600F027FE0597099B5A1BC1
:1034C00006D000E0099A0599504600F095FF059056
:1034D0000121504600F0F5FE0D9B05465BB31A46F0
:1034E0000146504600F088FF209B012B054618DC62
:1034F000029B83B9039BC3F3130373B9039B23F0AC
:1035000000473F0D3F054FB1089B013309F1010909
:103510000893012702E0002700E0029F0D9B73B192
:1035200000E000272B6905EB8303186900F07CFE9F
:10353000C0F1200004E0209B012BD9DD0D9F01206C
:10354000089B184410F01F000ED0C0F12003042B7C
:1035500008DDC0F11C0008E04857000800001440D6
:103560000000244006D018461C30089B03448144C8
:1035700004440893B9F1000F05DD4A460599504609
:1035800000F088FF0590089B002B05DD29461A46B0
:10359000504600F07FFF0546109BEBB12946059889
:1035A00000F0C9FF002817DA00230A2205995046C7
:1035B00000F0C1FD0C9B05900BF1FF3B002B00F0D0
:1035C0005881002331460A22504600F0B4FD069B84
:1035D000002B064637DC33E0B8F1000F2ADC209BD5
:1035E000022B27DDCDF81880069B83B929460522DA
:1035F000504600F0A0FD01460546059800F09BFFEF
:1036000000280DDC03E03D4600E000252E46219B0E
:10361000079C6FEA030B0AE0DDF828B03D463E4602
:10362000079B079A5C1C312313700BF1010BB0460A
:103630000026F7E00C9BCDF8188023B9079CB1E079
:10364000209B022BD0DC002C05DD31462246504663
:1036500000F020FF06469FB17168504600F01FFD44
:10366000326902320446920006F10C010C3000F07F
:1036700003FD01222146504600F00CFF804600E089
:10368000B046029BDDF81C9003F001030893294625
:103690000598FFF7D1FA3146044600F13007059846
:1036A00000F049FF424602902946504600F05FFF75
:1036B000C36802463BB901460990059800F03BFFFC
:1036C000099A034600E0012311465046099300F091
:1036D0001BFD099B4BB9209A3AB9089A2AB9392F90
:1036E00028D0029B002B1ADC1BE0029A002A04DB84
:1036F0001AD1209AC2B9089AB2B9002B11DD012261
:103700000599504600F0C6FE2946059000F013FFCB
:10371000002802DC05D1FA0703D5392F0AD004F1BD
:10372000310709F101040CE0002B09F101040BDD64
:10373000392F05D1392389F8003009F1010954E006
:10374000013789F800706DE0079B069A04F8017C48
:10375000E31A9342A1463AD000230A220599504623
:1037600000F0E9FC464505904FF000034FF00A02D7
:103770003146504604D100F0DEFC0646804686E71E
:1037800000F0D9FC4146064600230A22504600F0CC
:10379000D2FC80467BE700230A220599504600F0C0
:1037A000CAFC059029460598FFF746FA00F1300754
:1037B00004F8017B079B069AE31A9342EBDB079B15
:1037C000012AACBF9B180133B0469946002601225E
:1037D0000599504600F05EFE2946059000F0ABFECC
:1037E000002802DC15D1FB0713D54C4614F8013C28
:1037F000392B04F1FF3209D1079B934204D10BF11D
:10380000010B3123079A02E01446EFE701331370EE
:1038100008E04C4614F8013C302B04F1FF3201D192
:103820001446F7E72946504600F06EFCB8F1000F49
:103830000DD02EB1464503D03146504600F064FC11
:103840004146504600F060FC01E0DDF828B00599E3
:10385000504600F059FC0023229A23700BF101031B
:103860001360249B1BB11C6001E008480AE0079824
:1038700008E0069B002B3FF7E1AE209B022B7FF771
:10388000DDAEB1E617B0BDE8F08F00BF10550008FF
:10389000014900F0A9B800BF99520008002310B5F3
:1038A000044603604360836081814366C281036193
:1038B00043618361194608225C3000F0E8FB054B48
:1038C0006362054BA362054BE362054B24622363ED
:1038D00010BD00BF114F0008334F00086B4F0008A8
:1038E0008F4F000870B568234D1E5D430E4605F1ED
:1038F000740101F01BF8044640B1002180E8420049
:103900000C30A06005F1680200F0C1FB204670BDDC
:10391000836910B5044633BB8364C3640365124BEB
:10392000124A1B688262984204BF0123836100F03F
:103930001FF86060204600F01BF8A060204600F0F1
:1039400017F80022E06004216068FFF7A7FF01225A
:103950000921A068FFF7A2FF02221221E068FFF709
:103960009DFF0123A36110BD045700089138000892
:10397000F8B51C4B1E68B369074613B93046FFF70C
:10398000C7FF4836B4687368013B04D4B4F90C50DF
:103990007DB16834F8E733680BB13668F2E704218B
:1039A0003846FFF79FFF30600028F6D10C233B60BC
:1039B000F8BD4FF6FF73E3810123A381656625609F
:1039C000A560656025616561A5610822294604F14D
:1039D0005C0000F05CFB6563A563A564E5642046BC
:1039E000F8BD00BF045700082DE9F843804689461A
:1039F00000F14804002694B1A5686768013F0CD423
:103A0000AB89012B07D9B5F90E30013303D0294614
:103A10004046C84706436835F0E72468EBE7304680
:103A2000BDE8F883F0B506694B11B34200F1140507
:103A300027DA11F01F0105EB860605EB830201D1A1
:103A4000294616E0141D55F82320C1F1200ECA4066
:103A50002B46B44209D2276807FA0EF73A4343F8D7
:103A6000042B54F8042BCA40F3E71A6052B1043314
:103A700008E0B2420B4605D252F8043B41F8043B41
:103A8000F7E72B465B1B9B10036103B94361F0BD55
:103A9000A0F13003092B01D820380AE0A0F161031E
:103AA000052B01D8473804E0A0F14103052B02D8CB
:103AB0002738C0B27047002070472DE9F04F8BB017
:103AC0008A4690460693029000F0CAFA0368039370
:103AD0001846FCF75DFB039B019003444FF0000B7D
:103AE00013F8013C0793DAF8003002331F4613F84D
:103AF000010B302802D10BF1010BF7E7FFF7C8FFEC
:103B00000446E0B9019A0399384601F044FA0028C6
:103B100034D1019BF85CFE18FFF7BAFF80B333463F
:103B2000187830281F4603F10103F9D0FFF7B0FFE2
:103B3000B0FA80F56D0934464FF0010B01E0002525
:103B40002C463A46164601323078FFF7A1FF00288E
:103B5000F8D1019A0399304601F01DFA50B954B9D1
:103B6000019BF4182246164601323078FFF790FF89
:103B70000028F8D134B1A41BA40003E03E4600E0C5
:103B8000044601253378502B01D0702B2AD173784D
:103B90002B2B08D02D2B03D0711C4FF0000905E012
:103BA0004FF0010901E04FF00009B11C0878FFF760
:103BB0006FFF431EDBB2182B14D8A0F1100211F8CE
:103BC000010FFFF765FF431EDBB2182B04D80A2351
:103BD00003FB0202103AF2E7B9F1000F00D05242A3
:103BE000144400E03146CAF800102DB1BBF1000FBB
:103BF00014BF002006207CE1F31B013B2946072B64
:103C000002DD01315B10FAE7029800F048FA019BEF
:103C100000F1140A4FF00009C3F101030546CDF885
:103C200010A0CB460893B7422FD2731E0593079A74
:103C300016F8013C93420BD0BBF1200F16D1049B28
:103C4000C3F8009004334FF000090493CB460DE015
:103C5000059B089A13449F42EED81846019A03998F
:103C6000099301F098F9099B68B1E5E716F8010C92
:103C7000FFF70EFF00F00F0000FA0BF0059B49EA7A
:103C800000090BF1040B1E46CDE7049840F8049B95
:103C9000CAEB0000801028614701484600F0C4FAD2
:103CA000D8F80060381AB04226DD871B394628460E
:103CB00000F0BEFDC8B17B1E591103F01F024FF08A
:103CC00001095AF8211009FA02F20A420ED04B45B6
:103CD00002DC4FF0020909E0B91E284600F0A8FDF9
:103CE0000028F6D04FF0030900E081463946284607
:103CF000FFF798FE3C440CE009DA371A29463A46A9
:103D0000029800F0C7FBE41B054600F1140A4FF0CF
:103D10000009D8F808309C4208DD0298294600F0D6
:103D2000F3F9149A00231360A320E2E0D8F804000A
:103D3000844253DA041BA6422EDCD8F80C30022B46
:103D40001AD0032B1CD0012B1DD1A6421BD1012E52
:103D50000BDC069AD8F80430136001232B61CAF8F3
:103D60000030149B62201D60C3E0711E284600F0E5
:103D70005FFD0028EDD106E0159B002BE9D002E0A5
:103D8000159B002BE5D10298294600F0BDF9149A45
:103D9000002313605020ACE0671EB9F1000F06D17C
:103DA0003FB13946284600F043FD814601E04FF01F
:103DB00001097A11012307F01F0703FA07F75AF8E0
:103DC000223021461F42284618BF49F00209361BFF
:103DD000FFF728FE0227D8F8044000E00127B9F1D8
:103DE000000F00F08180D8F80C30022B0ED0032B8E
:103DF00010D0012B76D119F0020F73D0DAF8000041
:103E000049EA000919F0010F07D16BE0159BC3F1D6
:103E100001031593159B002B64D0D5F810A005F174
:103E200014034FEA8A0903EB090100201A68B2F172
:103E3000FF3F02D001321A6020E043F8040B9942A0
:103E4000F4D8AB689A4512DB69680298013100F03A
:103E500026F92A69023205F10C01834692000C30E2
:103E600000F00AF92946029800F04EF95D462B69E8
:103E70005A1C05EB83032A6101225A61022F05F1C6
:103E8000140211D1D8F80030013B9E4227D17111A4
:103E9000012306F01F0603FA06F652F821301E42EF
:103EA0000CBF022701271AE02B699A450ADA012183
:103EB0002846FFF7B7FDD8F8083001349C423FF799
:103EC0002CAF0BE016F01F0608D09144C6F1200677
:103ED00059F8040C00F0A8F9B042E8DB012747F0DC
:103EE000200701E047F01007149B1D60069B384631
:103EF0001C600BB0BDE8F08FC2F10802920070B5F3
:103F0000C2F120064368056803FA06F42C43D34047
:103F1000046040F8043F8842F4D370BD30B50368B4
:103F200011F8014B01334CB11A78A2F14105192D5A
:103F300098BF2032A242F3D0002030BD03600120A0
:103F400030BD2DE9F04F0B68D0F800B05E1102EBE8
:103F5000860613F01F0385B018BF0436351F1746B9
:103F600000228246019346F8042CA8462C46009273
:103F700091461BF8011F00293CD00846039202918C
:103F8000FFF786FD039A00BB0299202916D8009BF3
:103F90009945EEDD444505D2072A03DC414620461B
:103FA000FFF7AAFFBC4223D90023A4F1040844F878
:103FB000043CCDF8009044461A46DAE7292948D156
:103FC0000BF10103CAF8003014E00132082A09F1AC
:103FD000010906DDBC42CCD9002344F8043C01228F
:103FE000043C216800F00F0040EA01102060C0E7A7
:103FF0000822BEE7B9F1000F2BD0444505D2072AAD
:1040000003DC41462046FFF777FFBC420CD93B4614
:1040100054F8042B43F8042BA542F9D2002243F8AC
:10402000042B9D42FBD20BE0019B4BB1C3F120025C
:104030004FF0FF33D34056F8042C134046F8043CAD
:104040002B6843B9BD4202D101232B6003E0043D3C
:10405000F6E7042000E0052005B0BDE8F08F000081
:104060000048704768000020024B0146186800F0C5
:104070005DBC00BF6400002010B5431E0A4491429D
:1040800004D011F8014B03F8014FF8E710BD0244CA
:104090000346934202D003F8011BFAE7704770B55C
:1040A000456A04460E463DB91020FFF7DDFF606209
:1040B000456085600560C560656AEB6843B1636A09
:1040C000DB6853F8260078B1026843F8262017E031
:1040D00021220421204600F0CDFB636AE860DB6802
:1040E000002BECD1002070BD012101FA06F56A1DFC
:1040F0009200204600F0BEFB0028F3D046608560A9
:1041000000230361C36070BD70B5446A06460D4666
:104110003CB91020FFF7A8FF70624460846004601F
:10412000C4603DB1736A6A68DB6853F82210296085
:1041300043F8225070BD2DE9F0410D691F46064637
:104140000C4601F1140E0023DEF8000081B202FBE0
:1041500001710F0C000C02FB007089B2013301EBFE
:1041600000419D424FEA10474EF8041BECDCD7B1EA
:10417000A3689D4212DB616830460131FFF78FFF73
:104180002269023204F10C01804692000C30FFF7E4
:1041900073FF21463046FFF7B7FF444604EB850323
:1041A00001355F6125612046BDE8F0812DE9F843C6
:1041B0000C4615461F4609220833064693FBF2F3C8
:1041C000002101229A4202DA52000131FAE7304618
:1041D000FFF765FF089B4361092D4FF00103036161
:1041E00011DD04F10908C1462C4419F8013B0146D0
:1041F000303B0A223046FFF79EFFA145F5D108EB80
:104200000504083C01E00A3409252D1B63199F426F
:1042100008DD14F8013B0146303B0A223046FFF727
:104220008AFFF3E7BDE8F883030C1B0413B900040D
:10423000102300E0002310F07F4F04BF000208337A
:1042400010F0704F04BF0001043310F0404F04BF62
:1042500080000233002803DB420003D5581C70475E
:104260001846704720207047036813F007020BD0F0
:10427000D90722D49A074BBF5B089B0803600360F1
:104280004CBF01200220704799B209B91B0C1022C3
:1042900013F0FF0F04BF1B0A0832190704BF1B09E4
:1042A0000432990704BF9B080232D90702D45B0885
:1042B00005D001320360104670470020704720206F
:1042C000704710B50C460121FFF7E9FE0122446159
:1042D000026110BD2DE9F74F14460A6923699A421D
:1042E000B8BF0B468846BCBFA0461C46D8F8107025
:1042F000D4F81090D8F80830D8F8041007EB090665
:104300009E42C8BF0131FFF7CAFE00F1140505EB5C
:10431000860C2B460022634502D243F8042BFAE7B1
:1043200004F1140208F1140102EB890301EB870781
:104330000093009B0192934257D9B2F800B0BBF1B1
:10434000000F23D08946AE464FF0000859F8044BC1
:10435000BEF800A0A3B20BFB03A34FEA144ADEF899
:10436000004043444FEA14480BFB0A8404EB134417
:10437000F2469BB243EA04434F454FEA14484AF8D9
:10438000043B01D9D646E1E7CEF80480019BB3F89F
:1043900002A00432BAF1000F21D02B682C468946C6
:1043A0004FF00008B9F800E0B4F802B00AFB0EBE06
:1043B000F044A3469BB243EA08434BF8043B59F848
:1043C000043BB4F804E01B0C0AFB03E303EB1843C3
:1043D0004F454FEA134801D95C46E3E76360043573
:1043E000A7E75CF8043D13B9013E002EF9DC066135
:1043F00003B0BDE8F08F00002DE9F843154612F038
:10440000030206460F4607D0013A214C002354F818
:104410002220FFF790FE0746AD1036D0746A3CB9F3
:104420001020FFF721FE7062446084600460C46065
:10443000D6F82480D8F808404CB940F271213046B3
:10444000FFF73FFF0023C8F80800044603604FF061
:104450000008EB070AD5394622463046FFF73AFFF7
:10446000394681463046FFF74FFE4F466D100CD05F
:10447000206808B10446ECE7224621463046FFF7A3
:1044800029FF2060C0F80080F4E73846BDE8F883D3
:10449000105700082DE9F0470C464FEA621A2669CA
:1044A0004968A368564407469146751CAB4202DA38
:1044B00001315B00FAE73846FFF7F1FD0023804643
:1044C00000F114011A46534503DA41F82320013361
:1044D000F9E72AEAEA73206901EB830319F01F095F
:1044E00004F1140101EB800E14D0C9F1200C00225C
:1044F000086800FA09F002439A4643F8042B51F881
:10450000042B8E4522FA0CF2F2D8CAF8042042B1EC
:10451000B51C06E0043B51F8042B43F8042F8E45EC
:10452000F9D8013D3846C8F810502146FFF7ECFD98
:104530004046BDE8F08703690A699B1A10B511D19E
:1045400092001430143183180A4453F8044D52F881
:10455000041D8C4202D007D3012010BD9842F4D331
:10456000002010BD184610BD4FF0FF3010BD2DE9E2
:10457000F8430C460746114620461546FFF7DBFF79
:10458000061E08D131463846FFF789FD0123036135
:104590004661BDE8F883BCBF23462C4638466168B7
:1045A000BABF1D4601260026FFF779FD2B69C660BC
:1045B000266905F11409143404EB860709EB830816
:1045C00000F114054FF0000C54F8043B59F8042B8B
:1045D0001CFA83F11FFA82FE120CCEEB0101C2EB32
:1045E000134303EB214389B24FEA234CC84541EA08
:1045F0000343A64645F8043BE6D8BE450ED25EF816
:10460000041B1CFA81F2131403EB114392B242EA29
:1046100003424FEA234C45F8042BEEE755F8043DDE
:104620000BB9013EFAE70661BDE8F883104B0B4079
:10463000A3F15073002B02DD0020194670475B4246
:104640001B15132B4FF000004FF0000104DC4FF45A
:10465000002242FA03F17047143B1E2B4FF0010277
:10466000DABFC3F11F0302FA03F31346184670477B
:104670000000F07FF8B5056900F1140606EB85052A
:104680002F1F55F8044C2046FFF7CEFDC0F1200344
:104690000A280B6014DCC0F10B0E24FA0EF1BE42A6
:1046A00041F07F5334BF55F8081C0021153004FA3F
:1046B00000F021FA0EF143F4401340EA010223E036
:1046C000BE423ABFA5F1080755F8081C00210B3877
:1046D00015D08440C0F1200544F07F5444F44014C8
:1046E000B74221FA05FE44EA0E038CBF57F8044C8A
:1046F000002401FA00F0EC4040EA040204E044F037
:104700007F5343F440130A4610461946F8BD2DE97D
:10471000F34101211C46089E099D9046FFF7BFFC0E
:10472000C4F31303C4F30A5407460CB143F48013D3
:104730000193B8F1000F19D002A840F8088DFFF7D7
:1047400093FD009B48B1019AC0F1200102FA01F1EA
:104750000B43C2407B61019200E07B61019BBB6126
:10476000002B14BF02210121396107E001A8FFF7E6
:104770007BFD019B7B6101213961203034B1A4F2C2
:10478000334404443460C0F1350009E007EB810391
:10479000A0F2324030601869FFF746FDC0EB4110CF
:1047A0002860384602B0BDE8F0812DE9F74388461D
:1047B00069468146FFF75EFF0D46044601A9404663
:1047C000FFF758FFD9F81030D8F810200F469A1A82
:1047D0009DE80A00C91A01EB4213002BC8BF05EB84
:1047E00003550646D8BFA7EB035732463B46204643
:1047F0002946FCF707F803B0BDE8F083013910B58E
:1048000049111469013102F1140300EB810103EB3A
:104810008404A342024604D253F8042B40F8042B2C
:10482000F7E700238A4202D242F8043BFAE710BDC0
:1048300000F1140200694B11984210B50CDB0CDD3D
:1048400011F01F0109D052F8234024FA01F000FAB8
:1048500001F18C420CD100E0034602EB830393424A
:1048600004D953F8041D0029F9D001E0002010BD3F
:10487000012010BD38B502FB01F4214600F056F8C6
:10488000054618B122460021FFF701FC284638BD35
:1048900038B50546002946D051F8043C0C1F002BC2
:1048A000B8BFE41800F0AFFD1F4A1368114613B9F2
:1048B0006360146032E0A3420ED92268A0188342DC
:1048C00004BF18685B68636004BF121822600C6044
:1048D00024E0A24203D813465A68002AF9D1186886
:1048E0001918A1420BD1216801445818824219605D
:1048F00014D1106852685A60014419600EE002D960
:104900000C232B600AE021686018824204BF106803
:104910005268626004BF091821605C602846BDE8E7
:10492000384000F071BD38BD7801002070B5CD1C55
:1049300025F0030508350C2D38BF0C25002D064643
:1049400001DBA94202D90C23336046E000F05BFD95
:10495000234B1C681A462146A1B10B685B1B0ED481
:104960000B2B03D90B60CC18CD501EE08C420DBF31
:1049700063684B686360136018BF0C4615E00C4613
:104980004968E9E7174C23681BB93046FCF7E6FB9A
:10499000206029463046FCF7E1FB431C18D0C41CBC
:1049A00024F00304A0420DD12560304600F02CFD18
:1049B00004F10B00231D20F00700C31A0ED05A4249
:1049C000E25070BD211A3046FCF7C8FB0130EBD134
:1049D0000C233360304600F017FD002070BD00BF8F
:1049E00078010020740100202DE9F0478E689E4276
:1049F00082460C46914698463ED88A8912F4906FBA
:104A00003AD0256809696F1A6569022305EB4505E7
:104A100095FBF3F57B1C43449D4238BF1D4653056F
:104A20000FD52946FFF782FF064698B13A4621691D
:104A3000FFF722FBA38923F4906343F08003A38153
:104A400013E02A4600F0E1FC064670B921695046A1
:104A5000FFF71EFF0C23CAF80030A38943F0400380
:104A6000A3814FF0FF30BDE8F087266165613E44C9
:104A7000ED1B2660A5604646464528BF46463246A1
:104A80004946206800F0A4FCA3689B1BA360236830
:104A90001E4426600020BDE8F08700002DE9F04F9D
:104AA0009DB0804603938B891C060D4616460DD596
:104AB0000B695BB94021FFF739FF2860286118B9FD
:104AC0000C23C8F80030CDE040236B61002309932C
:104AD00020238DF82930DFF89CB130238DF82A305F
:104AE00037463C4614F8013B1BB9B7EB060910D01A
:104AF00003E0252BF9D02746F3E74B4632462946FB
:104B00004046FFF771FF013000F0A780099B4B443E
:104B100009933B78002B00F0A08000234FF0FF3278
:104B200004930793059206938DF853301A93012648
:104B3000052221784E48FBF733FB671C049B38B1F4
:104B40004B4A801A06FA00F0184304903C46EFE7FF
:104B5000D90644BF20228DF853201A0744BF2B22C8
:104B60008DF8532022782A2A03D0079A00210A20A0
:104B70000BE0039A111D12680391002A10DA5242C9
:104B800043F00200079204900BE0274601343B7883
:104B9000303B092B03D800FB02320121F5E701B1BC
:104BA00007923B782E2B1ED17B782A2B0AD1039BB0
:104BB0001A1D1B680392002BB8BF4FF0FF3302375A
:104BC000059310E000230593781C19460A24074634
:104BD00001303A78303A092A03D804FB0121012335
:104BE000F5E703B10591032239782248FBF7D8FA9B
:104BF00040B14023CBEB000003FA00F0049B1843C4
:104C00000490013739781C488DF8281006227E1C44
:104C1000FBF7C6FA88B1194B33B9039B073323F06E
:104C200007030833039314E003AB00932A46144BA5
:104C300004A94046FCF760FB07E003AB00932A465B
:104C40000F4B04A94046FCF711FEB0F1FF3F82462E
:104C500003D0099B5344099342E7AB895B0601D417
:104C6000099801E04FF0FF301DB0BDE8F08F00BFA4
:104C700010580008165800081A580008F9120008C1
:104C8000E94900089368013B002B10B4936009DAEE
:104C90009469A34202DBCBB20A2B03D15DF8044B2B
:104CA00000F08EB91368581C10601970C8B25DF816
:104CB000044B7047F8B506460F461446D518AC426B
:104CC00008D03A4614F8011B3046FFF7DBFF431CBF
:104CD000F5D100E00020F8BD2DE9F04F9DB00C4665
:104CE00017460393064618B183690BB9FEF710FE09
:104CF0007F4B9C4201D1746808E07E4B9C4201D1FD
:104D0000B46803E07C4B9C4208BFF468A389180791
:104D10000CD5236953B10023099320238DF8293042
:104D200030238DF82A30DFF8D4B144E021463046F4
:104D300000F0ACF90028EED04FF0FF30D5E0039A38
:104D4000111D12680391002A80F28C80524243F0B8
:104D500002000792049098F800302E2B00F0848017
:104D6000032298F800106548FBF71AFA48B140236F
:104D7000CBEB000003FA00F0049B1843049008F109
:104D8000010898F800105E488DF82810062208F1F6
:104D90000107FBF705FA002800F09580594B002B1E
:104DA00040F08880039B073323F007030833039305
:104DB000099B53440993B846454615F8013B1BB976
:104DC000B8EB07090FD003E0252BF9D0A846F3E78D
:104DD0004B463A4621463046FFF76CFF01307FD004
:104DE000099B4B44099398F80030002B78D000239E
:104DF0004FF0FF3204930793059206938DF85330DA
:104E00001A930127052229783F48FBF7C9F905F1D4
:104E10000108049B38B13C4A801A07FA00F0184395
:104E200004904546EEE7D90644BF20228DF8532072
:104E30001A0744BF2B228DF853202A782A2A3FF4E0
:104E40007EAF079A00210A20A846013598F8003065
:104E5000303B092B03D800FB02320121F4E7002983
:104E60003FF479AF079276E798F801302A2B0BD1FF
:104E7000039B1A1D1B680392002BB8BF4FF0FF3332
:104E800008F1020805936BE70023059308F1010080
:104E900019460A258046013098F80020303A092A40
:104EA00003D805FB01210123F4E7002B3FF458AFA1
:104EB000059155E703AB00932246144B04A93046F5
:104EC000FCF71AFA07E003AB009322460F4B04A944
:104ED0003046FCF7CBFCB0F1FF3F82467FF468AF71
:104EE000A3895B063FF528AF09981DB0BDE8F08F98
:104EF000A0560008C0560008E056000816580008E2
:104F00001A580008F912000810580008B54C00089B
:104F100010B50C46B1F90E1000F09EFA0028ABBF98
:104F2000636DA3891B1823F48053ACBF6365A38111
:104F300010BD2DE9F0411F468B89DB0505460C4667
:104F4000164605D502230022B1F90E1000F0CEF965
:104F5000A389B4F90E1023F48053A38132463B4653
:104F60002846BDE8F04100F07FB810B50C46B1F915
:104F70000E1000F0BBF9431CA38915BF606523F434
:104F8000805343F48053A38118BFA38110BDB1F9AE
:104F90000E1000F0E9B830B582B1451E013915F8A0
:104FA000013F11F8014FA34206D1EC431444E04203
:104FB00001D0002BF3D11C46181B30BD104630BD6C
:104FC000F8B50F461446064618B183690BB9FEF7CB
:104FD0009FFC224B9C4201D1746808E0204B9C420C
:104FE00001D1B46803E01F4B9C4208BFF468A36979
:104FF000A360A3891A0709D523693BB123682069F7
:10500000181A63699842FDB20FDB08E0214630466A
:1050100000F03CF80028F1D04FF0FF30F8BD2146F9
:10502000304600F039F90028F6D1A368013BA360AF
:1050300023685A1C22601F706269431C934204D08B
:10504000A389DB0707D50A2D05D12146304600F09C
:1050500023F90028E0D12846F8BD00BFA05600087B
:10506000C0560008E056000838B5074C054608460B
:105070001146002222601A46FCF762F8431C02D156
:10508000236803B12B6038BD7C010020324B70B522
:105090001D6806460C4625B1AB6913B92846FEF7D4
:1050A00037FC2E4B9C4201D16C6808E02C4B9C4293
:1050B00001D1AC6803E02B4B9C4208BFEC68B4F90B
:1050C0000C309AB215071DD4D00602D409223260E2
:1050D0003AE0510712D5616B41B104F144039942A2
:1050E00002D03046FFF7D4FB00236363A38923F08B
:1050F0002403A3810023636023692360A38943F011
:105100000803A38123694BB9A38903F42073B3F582
:10511000007F03D02146304600F01EF9A28912F02C
:10512000010305D00023A36063695B42A36103E030
:10513000920758BF6369A36023695BB9B4F90C3067
:1051400003F0800080B230B143F04003A3814FF000
:10515000FF3070BD002070BD64000020A056000824
:10516000C0560008E056000838B5064C0023054636
:1051700008462360FBF7D0FF431C02D1236803B12C
:105180002B6038BD7C0100208A892DE9F04105465D
:1051900010070C4659D44B68002B02DC0B6C002B1B
:1051A00017DDE66AAEB102F48052002392B22F6896
:1051B0002B600AB1606D15E0216A01232846B047D3
:1051C000411C0FD12B686BB11D2B01D0162B03D1C5
:1051D0002F600020BDE8F081A38943F04003A38144
:1051E000BDE8F081A3895A0705D56368C01A636BCF
:1051F0000BB1236CC01A00230246E66A216A2846D6
:10520000B047431CA38906D129681D293AD8214AF1
:10521000CA40D60736D500226260D90422692260CE
:1052200004D5421C01D12B6803B96065616B2F6006
:105230000029CED004F14403994202D02846FFF75A
:1052400027FB00206063BDE8F0810F69002FC0D00C
:1052500093070E6808BF4B690F6018BF0023C7EBA8
:1052600006088B6002E00744C0EB0808B8F1000FA5
:10527000AFDD43463A46216AA66A2846B047002871
:10528000F1DCA38943F04003A3814FF0FF30BDE878
:10529000F08100BF0100402038B50B6905460C467F
:1052A000DBB118B183690BB9FEF732FB0C4B9C42A2
:1052B00001D16C6808E00B4B9C4201D1AC6803E063
:1052C000094B9C4208BFEC68B4F90C302BB1214665
:1052D0002846BDE83840FFF757BF002038BD00BF63
:1052E000A0560008C0560008E056000838B5074C24
:1052F000054608461146002222601A46FBF712FFB7
:10530000431C02D1236803B12B6038BD7C0100200F
:1053100070B50E46B1F90E10002990B014461D4626
:1053200006DA00232B60B3891A060ED540230EE05F
:1053300001AA00F0A3F80028F3DB029A02F47042FD
:10534000A2F500535A425A412A604FF4806300206C
:10535000236010B070BD00008B8973B59E070546B1
:105360000C4610D401AB6A46FFF7D2FF00990646FF
:105370002846FFF7DBFA68B9B4F90C309A0522D455
:1053800043F00203A38104F1470323602361012357
:10539000636118E00D4BAB62A389206043F080038A
:1053A000A381009B6361019B20614BB1B4F90E1096
:1053B000284600F075F818B1A38943F00103A381D2
:1053C000A0893043A08102B070BD00BF91380008B1
:1053D000884210B501EB020301D8421E0BE098424F
:1053E000FBD28118D21AD34204D013F8014D01F830
:1053F000014DF8E710BD994204D011F8014B02F8B5
:10540000014FF8E710BD70477047F8B507461546DD
:105410000E4621B91146BDE8F840FFF787BA1AB920
:10542000FFF736FA2846F8BD00F04AF885420ED953
:1054300029463846FFF77AFA044650B131462A46E3
:10544000FEF71AFE31463846FFF722FA01E03046F1
:10545000F8BD2046F8BD000038B5074C05460846A3
:105460001146002222601A46FBF75EFE431C02D161
:10547000236803B12B6038BD7C01002038B5074C90
:1054800000230546084611462360FBF747FE431CF0
:1054900002D1236803B12B6038BD00BF7C0100201E
:1054A00038B5064C0023054608462360FBF738FE56
:1054B000431C02D1236803B12B6038BD7C0100205E
:1054C00051F8040C0028BEBF091851F8043CC0185C
:0454D00004387047E5
:1054D8004C6F76654C6976657E2025640A005F65A9
:1054E8007869740A005F6B696C6C2025640A005F38
:1054F8006765747069640A00494E4600696E660003
:105508004E414E006E616E0030003031323334351A
:105518003637383941424344454600303132333416
:1055280035363738396162636465660065256C64B1
:105538000000000034000000CEFBFFFFCB0300009A
:10554800010000000000000035000000CEFBFFFF56
:10555800CB03000001000000000000000000000074
:10556800BC89D897B2D29C3C33A7A8D523F6493931
:105578003DA7F444FD0FA5329D978CCF08BA5B2553
:10558800436FAC64280668110020202020202020CA
:1055980020202828282828202020202020202020DB
:1055A80020202020202020202088101010101010EB
:1055B8001010101010101010100404040404040437
:1055C80004040410101010101010414141414141D1
:1055D80001010101010101010101010101010101B3
:1055E80001010101101010101010424242424242C3
:1055F8000202020202020202020202020202020283
:10560800020202021010101020000000000000002A
:105618000000000000000000000000000000000082
:105628000000000000000000000000000000000072
:105638000000000000000000000000000000000062
:105648000000000000000000000000000000000052
:105658000000000000000000000000000000000042
:105668000000000000000000000000000000000032
:105678000000000000000000000000000000000022
:10568800000000000000000000496E66696E697441
:1056980079004E614E00000000000000000000008C
:1056A80000000000000000000000000000000000F2
:1056B80000000000000000000000000000000000E2
:1056C80000000000000000000000000000000000D2
:1056D80000000000000000000000000000000000C2
:1056E80000000000000000000000000000000000B2
:1056F800000000000000000043000000040000203B
:10570800504F534958002E000500000019000000B2
:105718007D000000000000000080E03779C34143AD
:10572800176E05B5B5B89346F5F93FE9034F384DFF
:10573800321D30F94877825A3CBF737FDD4F1575AB
:10574800000000000000F03F0000000000002440BE
:1057580000000000000059400000000000408F4099
:10576800000000000088C34000000000006AF84004
:105778000000000080842E4100000000D012634128
:105788000000000084D797410000000065CDCD419E
:10579800000000205FA00242000000E8764837427F
:1057A800000000A2941A6D42000040E59C30A2421D
:1057B8000000901EC4BCD64200003426F56B0C4392
:1057C8000080E03779C3414300A0D8855734764339
:1057D80000C84E676DC1AB43003D9160E458E1439A
:1057E800408CB5781DAF154450EFE2D6E41A4B440F
:1057F80092D54D06CFF08044F64AE1C7022DB54454
:10580800B49DD9794378EA44232D302B2000686C65
:0C5818004C006566674546470000000034
:105824009055000800000000A0560008C05600086B
:10583400E056000800000000000000000000000026
:1058440000000000005700080000000000000000F5
:105854000000000000000000000000000000000044
:105864000000000000000000000000000000000034
:105874000000000000000000000000000000000024
:1058840000000000040000200E570008F654000831
:10589400F6540008F6540008F6540008F6540008BC
:1058A400F6540008F6540008F6540008F6540008AC
:1058B400FFFFFFFFFFFFFFFFFFFFFFFFFFFF0000F2
:0400000508000C5192
:00000001FF
